:020000040800F2
:10000000B0040020D1000008B91100088B100008CE
:1000100000000000000000000000000000000000E0
:10002000000000000000000000000000BD110008FA
:100030000000000000000000BB110008BF11000814
:10004000E3000008E3000008E3000008E300000804
:10005000E3000008E3000008E3000008E3000008F4
:10006000E3000008E3000008E3000008E3000008E4
:10007000E3000008E3000008E30000081512000890
:1000800025120008E300000800000000E30000085B
:10009000E3000008E3000008E3000008E3000008B4
:1000A000E3000008E3000008E3000008E3000008A4
:1000B000E300000800000000E30000080348854654
:1000C00000F08EF80048004775140008B0040020C6
:1000D0000448804704480047FEE7FEE7FEE7FEE7E6
:1000E000FEE7FEE711120008BD00000830B50B4620
:1000F000014600202022012409E00D46D5409D4202
:1001000005D31D469540491B254695404019154687
:10011000521E002DF1DC30BDF0B51FB406460020A4
:1001200082B005464024019100901BE001992246CF
:100130000F46304600F020F8049A059B801A99413A
:1001400010D310461946224600F039F8361A8F416E
:100150000197224601200021009F00F030F8381856
:100160004D4100902046641E0028DFDC019B009872
:100170002946324607B0F0BD10B5202A04DB0846F8
:10018000203AD040002110BD0B46D340D04020245F
:10019000A21A91400843194610BDD2B201E0027084
:1001A000401C491EFBD270470022F6E710B51346EB
:1001B0000A4604461946FFF7F0FF204610BD10B569
:1001C000202A04DB0146203A9140002010BD9140D6
:1001D00020239C1A0346E3401943904010BD0000C1
:1001E000064C0125064E05E0E36807CC2B430C3C8A
:1001F00098471034B442F7D3FFF764FFB0140008F7
:10020000D0140008FCB500230124A1E027462A46AB
:100210009F403A4073D04D68012D05D0022D03D088
:10022000112D01D0122D16D185680326AC465D0034
:10023000AE46AE406546B543AC46CE687546AE4068
:1002400065462E43866046680D79BE43ED06ED0F88
:100250009D4035434560C6685F000325BD40AE46FE
:10026000AE4335468E68BE402E43C6604E68022EB1
:1002700001D0122E14D1DE08B60036180196366A67
:100280005D07B446EE0E0F25B54000966646AE43B8
:10029000B4460D69009EB54066462E43019D2E6210
:1002A00006687546AE430D79AD07AD0FBD403543C9
:1002B00005604D68ED004AD5284DAE692643AE6114
:1002C000AD699E08ED07ED0F0095254DB600751937
:1002D000AC46AD689E07360F0F27B740BD430927D0
:1002E000FF06B84201D1002710E01E4FB84201D1ED
:1002F00001270BE01C4FB84202D1022706E026E09E
:100300001A4FB84201D1032700E00527B7402F4319
:100310006546AF60164E35684F689543FF0300D5BC
:100320001543356075684F689543BF0300D5154385
:100330007560B5684F689543FF0200D51543B560F9
:10034000F5684F689543BF0200D51543F5605B1C07
:100350000A681546DA4000D058E7FCBD001002409C
:10036000000001400004004800080048000C00485C
:10037000000401400069084000D001207047002AB5
:1003800001D0816170478162704700000148806838
:10039000704700000C00002002488168027889182C
:1003A000816070470C00002010B5064801681022DB
:1003B00011430160002000F007F800F027F800204A
:1003C00010BD00000020024070B504460D4D7D2098
:1003D0002978C000FFF78AFE01460B480068FFF746
:1003E00085FE00F0BFFA002809D1042C07D20022B4
:1003F0002146401E00F02AF800206C6070BD0120EC
:1004000070BD00000C0000201800002008B508484E
:100410008169012211438161816911400091C269A2
:1004200001040A43C261C0690840009008BD000091
:1004300000100240002805DBC106C90E01208840DB
:10044000014908607047000000E100E010B500F0CD
:10045000DFFF10BDF8B50F46060059D03A4D2868A9
:10046000C007C00FB84209D228684008400038438E
:1004700028602868C007C00FB84249D13068334CA3
:1004800081070CD5400704D560680721090208439D
:1004900060606068F0218843B1680843606030782C
:1004A000C00726D0706801280ED0216802280ED01F
:1004B000890700292CDA6168890889000143616095
:1004C000FFF764FF00900DE021688903F1E78901DF
:1004D000EFE7FFF75BFF0099411A1D48814201D900
:1004E0000320F8BD60680C210840716889008842CB
:1004F000EFD12868C007C00FB8420BD92868400860
:100500004000384328602868C007C00FB84201D0B7
:100510000120F8BD3078400706D560680721090240
:100520008843F1680843606000F018F86168094A80
:100530000906090F515CC840074908600020FFF711
:1005400043FF0020F8BD00000020024000100240E0
:1005500088130000A01400081800002010B514A390
:100560000FCB88B06C460FC415A30FCB0FC4184A2D
:1005700051680C200B4603401648042B16D0082B5C
:1005800014D18B021B0F6C46E45CD26A04AB1207D9
:10059000120F9A5CC90305D500231946FFF7BCFD6D
:1005A000214601E020460C4900F019FF08B010BDBB
:1005B00002030405060708090A0B0C0D0E0F1010A4
:1005C0000102030405060708090A0B0C0D0E0F10A3
:1005D0000010024000127A0000093D00FEB5040040
:1005E00070D02078DC4DC0074AD068680007800FC3
:1005F000012807D068680007800F022809D16868C1
:10060000C00306D5286880033AD560680028E7D083
:1006100036E06168012914D001208004002901D04E
:10062000052914D02A68012109048A432A6029680F
:10063000814329606068002816D0FFF7A7FE0646B0
:100640000EE028680121090408432860F2E72968C0
:1006500001432960F5E7FFF799FE801B64286ED8F7
:1006600028688003F7D50BE0FFF790FE064604E00C
:10067000FFF78CFE801B6428F1D828688003F7D42C
:1006800020780126800700283CDA68680007800F80
:1006900007D068680007800F022809D16868C00386
:1006A00006D42868800716D5E06801280AD112E030
:1006B000E0680028286816D030432860FFF766FEFF
:1006C000074605E043E1FFF761FEC01B0228C6D8DC
:1006D00028688007F7D52868F82188432169C90070
:1006E000084328600EE0400840002860FFF74EFEF7
:1006F000074604E0FFF74AFEC01B0228AFD828686F
:100700008007F7D42078000722D5E0690028686ABE
:100710000ED030436862FFF739FE074604E0FFF76A
:1007200035FEC01B02289AD8686A8007F7D50FE00B
:10073000400840006862FFF729FE074605E09DE09B
:10074000FFF724FEC01B022889D8686A8007F7D407
:10075000207804274007002860DA00200190E8692B
:10076000C00008D4E969B8060143E961E9690140BC
:1007700001200091019079480168C90511D40168F0
:10078000821511430160FFF701FE009005E0FFF7BD
:10079000FDFD0099401A642870D870480068C005B3
:1007A000F5D5A06801280AD0002801D0052810D06E
:1007B000286A400840002862286AB84301E0286A95
:1007C00030432862A068002812D0FFF7DFFD0090B8
:1007D0000AE0286A38432862F1E7FFF7D7FD00995D
:1007E000411A5F48814249D8286A8007F5D50DE053
:1007F000FFF7CCFD009006E0FFF7C8FD0099411A15
:10080000574881423AD8286A8007F5D401980028D1
:1008100004D0E969012000078143E9612078C0061E
:1008200035D5606901280CD0401D686B23D0384352
:100830006863686B400840006863FFF7A7FD0646E1
:1008400022E0686B38436863686B30436863FFF786
:100850009DFD064604E0FFF799FD801B02285BD84A
:10086000686B8007F7D5686BF8218843A169C900D8
:10087000084368630BE0B8436863F4E74CE0FFF7B4
:1008800085FD801B022847D8686B8007F7D4206A53
:1008900000285ED069680907890F022942D0012625
:1008A00036060228286805D0B0432860FFF76EFDA1
:1008B000044633E0B0432860FFF768FD074604E0D4
:1008C000FFF764FDC01B022826D828688001F7D4F2
:1008D000E86AE16A000900010843E862616AA06A07
:1008E000084369683D221204914308436860286800
:1008F00030432860FFF74AFD044604E0FFF746FD59
:10090000001B022808D828688001F7D521E0FFF7EE
:100910003DFD001B022801D90320FEBD286880018F
:10092000F5D416E00128F8D06868E96A01221204BB
:10093000636A02409A420AD10907E26A090F9142AA
:1009400005D10F2189040840A16A884201D0012005
:10095000FEBD0020FEBD00000010024000700040FF
:1009600088130000094910B5401E884201D90120B2
:1009700010BD074C60610321081F00F049FD0020F5
:10098000A06107202061002010BD0000FFFFFF00D4
:1009900000E000E070477047F0B502462032137F58
:1009A000012B21D00125157702235377066874683F
:1009B000B3687027BC430F682743776000680B4C0F
:1009C000A04208D0AC07A04205D0094CA04202D0FA
:1009D000084CA04204D180244968A3431943816094
:1009E000557700201077F0BD0220F0BD002C0140AB
:1009F000000400400040014070B5040005D02546C9
:100A00002035687F002802D006E0012070BD00205C
:100A10002877204600F014F802206877211D20680E
:100A200000F008FC01204034A071A877E87720701E
:100A30006070A070E070207160716877002070BDF8
:100A400010B586B0044614216846FFF7ADFB0123BC
:100A500022689B071B4802219A421FD1C3690122C9
:100A60001343C361C3691340059344690B041C43DA
:100A70004461406900921840059000200290039064
:100A80000191049109206946C006FFF7BBFB0022D3
:100A900011460F20FFF7DAFC0F200EE00A4B9A42B6
:100AA0000DD1C2690A43C261C069002208400590A5
:100AB00011461020FFF7CAFC1020FFF7BBFC06B060
:100AC00010BD00000010024000040040014620312B
:100AD0004A7F012A01D00120704702224A7702682A
:100AE000D36801210B43D36000680B4A904208D0C1
:100AF0008A07904205D0094A904202D0084A9042A3
:100B000004D182685207520F062A02D002680A43B3
:100B10000260002070470000002C014000040040EB
:100B2000004001400168CA6852085200CA6001686A
:100B30000A6A084B1A4207D10A6A9B101A4203D16B
:100B40000A68520852000A600121203041770020D3
:100B50007047000011110000F8B505460446203525
:100B6000287F012817D001262E7702206877226877
:100B700090687727FF23B8431B02984390600A6868
:100B8000502A31D00EDC202A4BD006DC002A48D077
:100B9000102A3AD145E00220F8BD302A41D0402A3F
:100BA00033D136E0602A27D0702A12D0012000030A
:100BB000121A2AD0824228D1CB684A6889682068F4
:100BC00000F08FFB2068816801229203114381604D
:100BD0001BE0CB684A688968206800F082FB2168C6
:100BE00088683843886010E0CA684968206800F067
:100BF0008BFB5021206806E0CA684968206800F035
:100C0000C1FB6021206800F077FB6E770020287719
:100C1000F8BDCA684968206800F076FB402120686A
:100C2000F1E711462068EEE710B500680121890759
:100C3000884215D109200121C006FFF79BFB01283E
:100C40000ED1084C206801280AD103210022090294
:100C50000548FFF794FB0548FFF738FF00202060A8
:100C600010BD0000000000200008004864000020C3
:100C7000F8B5064604462036307F0D46012839D0A7
:100C800001203077002A37D0042A44D0082A55D0D2
:100C90002B6820689E466F682B7B016ABC46012248
:100CA000120391430162C169026A03273F02B943FB
:100CB00067463F020F430F2109038F431907090CB1
:100CC000052339435B039A4373460A273B401B03C2
:100CD0001343C16103622068C269032189028A4308
:100CE000C2612068C169AA6812021143C161002073
:100CF0003077F8BD0220F8BDEB6806CD083D2068CE
:100D000000F014FB206881690C2291438161206806
:100D10008169AA680FE0EB6806CD083D206800F005
:100D200044FB20688269032189028A43826120682A
:100D30008169AA68120211438161D8E72868216895
:100D400084462B7B6F68086AFF2201329043086259
:100D5000C8690A6A800880003843F027B8431B0737
:100D60001B0E034305204002824360460A27384099
:100D700000021043CB6108622068C1690C229143D4
:100D8000C1612068C169AA68AFE770B5040005D0E9
:100D900025462035687F002802D006E0012070BD7E
:100DA00000202877204600F014F802206877211DE3
:100DB000206800F03FFA01204034A071A877E8775E
:100DC00020706070A070E070207160716877002002
:100DD00070BD704730B503460446203340300029CB
:100DE00008D0042909D008290AD045784279012D74
:100DF0000BD108E09D7F8278F9E7DD7FC278F6E7C6
:100E000005780279F3E7012A01D0012030BD0222E2
:100E1000002908D004290DD0082911D04270427150
:100E20000C2914D12FE09A7782702068C36813438D
:100E3000C3600CE0DA77C2702068C268042304E063
:100E4000027002712068C26808231A43C26001223E
:100E5000206800F039FA0E4A20680121904208D03B
:100E60008A07904205D00B4A904202D00A4A90422B
:100E700004D182685207520F062A02D002680A4340
:100E80000260002030BD2068C2681023DDE700004A
:100E9000002C0140000400400040014070B50446B1
:100EA000006801690025C9438907002915DBC1686D
:100EB000C943890711D4E91E016101202077206808
:100EC00080698007204602D0FFF7AEFE04E000F004
:100ED00096F8204600F094F8257720680169C94308
:100EE000490717D4C168C943490713D40421C9432A
:100EF000016102202077206880698005800F2046EC
:100F000002D0FFF791FE04E000F079F8204600F0EF
:100F100077F8257720680169C943090716D4C168A5
:100F2000C943090712D40821C9430161042020776D
:100F30002068C0698007204602D0FFF775FE04E0F4
:100F400000F05DF8204600F05BF825772068016925
:100F5000C943C90617D4C168C943C90613D41021AF
:100F6000C9430161082020772068C0698005800F8F
:100F7000204602D0FFF758FE04E000F040F820467B
:100F800000F03EF8257720680169C943C90708D1F8
:100F9000C168C943C90704D1891E0161204600F018
:100FA00031F820680169C943090609D4C168C943F9
:100FB000090605D48021C94301612046FFF7EAFCF8
:100FC00020680169C943490609D4C168C943490673
:100FD00005D44021C9430161204600F055F820683E
:100FE0000169C943890609D4C168C943890605D482
:100FF0002021C94301612046FFF7CDFC70BD704739
:1010000070470000F8B500681B49884233D10920B9
:101010000121C006FFF7AEF900282CD1174C01259D
:1010200060682F02164E032803DC401C6060032812
:1010300001DD656001E0012809D101223946304611
:10104000FFF79DF9012251023046FFF798F96068D9
:10105000022804D1012239463046FFF790F9606832
:10106000032804D1012251023046FFF788F90548D0
:101070002560FFF757FDF8BD000400400000002088
:1010800000080048640000207047FEE730B587B0D4
:1010900014216846FFF788F8114842690121490484
:1010A0000A43426142690A400592426989000A4343
:1010B00042614069032408400A4D24020590002241
:1010C00021462846FFF75BF9002101200291039198
:1010D0000190009469462846FFF794F807B030BDA8
:1010E000001002400008004810B58AB000240494A3
:1010F00005940694079408940121174809940094D4
:10110000019402948907039401601449846041604A
:10111000046113498461C160FFF76EFC0120000384
:10112000049004A90C48FFF717FD0B48FFF72DFEAC
:10113000089408A908480994FFF72EFC01200190A3
:101140000F20039000940294002269460248FFF7A2
:101150008FFD0AB010BD00001C00002080BB000005
:10116000A086010010B586B00024009410480194B8
:101170000294039404940D49059401600D49846020
:101180004160046132218461C160FFF735FC0120B8
:101190000003009069460648FFF7DEFC049404A9AA
:1011A00003480594FFF7F8FB06B010BD00040040AB
:1011B0006400002080BB000070477047704710B586
:1011C000FFF7EAF810BD30B591B030216846FEF760
:1011D000EBFF00240D94012003900E9402251020B3
:1011E00009940490009505200F94C0040A900C9473
:1011F00008950B946846FFF7F1F907200C900E94C0
:1012000001210D950F940CA8FFF724F911B030BD02
:101210007047000010B50248FFF740FE10BD000007
:101220001C00002010B50248FFF738FE10BD00007A
:1012300064000020F0B502681D4B0124A4071D4D79
:10124000984203D0A04201D0A84203D17026B243F5
:101250004E683243184E194F98420DD0A0420BD021
:10126000A84209D0164CA04206D0B04204D0B842E1
:1012700002D0144CA04204D103242402A243CC681F
:1012800022438024A2434C69224302608A68C262DE
:101290000A688262984206D0B04204D0B84202D0B6
:1012A000084A904201D10969016301214161F0BD01
:1012B000002C014000040040004001400044014077
:1012C000002000400048014010B5CB06DB0E012194
:1012D000046A99408C430462016A9A401143016296
:1012E00010BD30B58468FF252D021B021343AC43AB
:1012F0000B432343836030BD826870239A430A43C3
:1013000007210A438260704730B5036A046A6408A3
:10131000640004628469F025AC43120122430A246C
:10132000A3430B438261036230BD000070B5046AC1
:101330006408640004628469056A0F4EB04209D0F3
:101340000126B607B04205D00C4EB04202D00C4E7A
:10135000B04202D1A408A40000E001221443F0220C
:1013600094431A07120E0A2322439D43194029432E
:101370008261016270BD0000002C01400004004049
:101380000040014030B5036A1024A343036284691E
:10139000036A0F252D031203AC432243A024A34369
:1013A000090119438261016230BD70B5046A1025DC
:1013B000AC4304628569046A03263602B54312020F
:1013C0002A430F252D031B071B0CAA431343A022FE
:1013D00009019443114021438361016270BDF8B556
:1013E000040C8BB2264682B25E430D0C1046370CBD
:1013F0005843360480190021794116466E43370C54
:1014000036048019794126466E438919F8BD0000DB
:101410008307FF22DB0E9A408907090E99400028B6
:1014200008DB830809489B001B1818689043084391
:10143000186070470007000F0838830804489B00B5
:101440001B18D86990430843D861704700E400E056
:1014500000ED00E002E008C8121F08C1002AFAD11E
:1014600070477047002001E001C1121F002AFBD124
:1014700070470000084900204860FEF795FFFFF71D
:10148000A2FEFFF703FEFFF76DFEFFF72DFE002122
:101490000248FFF79FFCFEE7000000201C00002030
:1014A0000000000000000000010203040607080914
:1014B000D0140008000000201C0000005414000894
:1014C000EC1400081C0000209404000064140008C0
:1014D000010000000000000000000000010000000A
:0C14E000040000000000000000127A0070
:04000005080000BD32
:00000001FF
